{
  "_format": "hh-sol-artifact-1",
  "contractName": "BoredApe",
  "sourceName": "contracts/Boredape.sol",
  "abi": [
    {
      "inputs": [
        {
          "internalType": "string",
          "name": "uri",
          "type": "string"
        },
        {
          "internalType": "bytes32",
          "name": "merkleroot",
          "type": "bytes32"
        },
        {
          "internalType": "address",
          "name": "_proxyRegistryAddress",
          "type": "address"
        }
      ],
      "stateMutability": "nonpayable",
      "type": "constructor"
    },
    {
      "anonymous": false,
      "inputs": [
        {
          "indexed": true,
          "internalType": "address",
          "name": "owner",
          "type": "address"
        },
        {
          "indexed": true,
          "internalType": "address",
          "name": "approved",
          "type": "address"
        },
        {
          "indexed": true,
          "internalType": "uint256",
          "name": "tokenId",
          "type": "uint256"
        }
      ],
      "name": "Approval",
      "type": "event"
    },
    {
      "anonymous": false,
      "inputs": [
        {
          "indexed": true,
          "internalType": "address",
          "name": "owner",
          "type": "address"
        },
        {
          "indexed": true,
          "internalType": "address",
          "name": "operator",
          "type": "address"
        },
        {
          "indexed": false,
          "internalType": "bool",
          "name": "approved",
          "type": "bool"
        }
      ],
      "name": "ApprovalForAll",
      "type": "event"
    },
    {
      "anonymous": false,
      "inputs": [
        {
          "indexed": true,
          "internalType": "contract IERC20",
          "name": "token",
          "type": "address"
        },
        {
          "indexed": false,
          "internalType": "address",
          "name": "to",
          "type": "address"
        },
        {
          "indexed": false,
          "internalType": "uint256",
          "name": "amount",
          "type": "uint256"
        }
      ],
      "name": "ERC20PaymentReleased",
      "type": "event"
    },
    {
      "anonymous": false,
      "inputs": [
        {
          "indexed": true,
          "internalType": "address",
          "name": "previousOwner",
          "type": "address"
        },
        {
          "indexed": true,
          "internalType": "address",
          "name": "newOwner",
          "type": "address"
        }
      ],
      "name": "OwnershipTransferred",
      "type": "event"
    },
    {
      "anonymous": false,
      "inputs": [
        {
          "indexed": false,
          "internalType": "address",
          "name": "account",
          "type": "address"
        },
        {
          "indexed": false,
          "internalType": "uint256",
          "name": "shares",
          "type": "uint256"
        }
      ],
      "name": "PayeeAdded",
      "type": "event"
    },
    {
      "anonymous": false,
      "inputs": [
        {
          "indexed": false,
          "internalType": "address",
          "name": "from",
          "type": "address"
        },
        {
          "indexed": false,
          "internalType": "uint256",
          "name": "amount",
          "type": "uint256"
        }
      ],
      "name": "PaymentReceived",
      "type": "event"
    },
    {
      "anonymous": false,
      "inputs": [
        {
          "indexed": false,
          "internalType": "address",
          "name": "to",
          "type": "address"
        },
        {
          "indexed": false,
          "internalType": "uint256",
          "name": "amount",
          "type": "uint256"
        }
      ],
      "name": "PaymentReleased",
      "type": "event"
    },
    {
      "anonymous": false,
      "inputs": [
        {
          "indexed": true,
          "internalType": "address",
          "name": "from",
          "type": "address"
        },
        {
          "indexed": true,
          "internalType": "address",
          "name": "to",
          "type": "address"
        },
        {
          "indexed": true,
          "internalType": "uint256",
          "name": "tokenId",
          "type": "uint256"
        }
      ],
      "name": "Transfer",
      "type": "event"
    },
    {
      "inputs": [
        {
          "internalType": "address",
          "name": "",
          "type": "address"
        }
      ],
      "name": "_presaleClaimed",
      "outputs": [
        {
          "internalType": "uint256",
          "name": "",
          "type": "uint256"
        }
      ],
      "stateMutability": "view",
      "type": "function"
    },
    {
      "inputs": [
        {
          "internalType": "address",
          "name": "to",
          "type": "address"
        },
        {
          "internalType": "uint256",
          "name": "tokenId",
          "type": "uint256"
        }
      ],
      "name": "approve",
      "outputs": [],
      "stateMutability": "nonpayable",
      "type": "function"
    },
    {
      "inputs": [
        {
          "internalType": "address",
          "name": "owner",
          "type": "address"
        }
      ],
      "name": "balanceOf",
      "outputs": [
        {
          "internalType": "uint256",
          "name": "",
          "type": "uint256"
        }
      ],
      "stateMutability": "view",
      "type": "function"
    },
    {
      "inputs": [],
      "name": "baseExtension",
      "outputs": [
        {
          "internalType": "string",
          "name": "",
          "type": "string"
        }
      ],
      "stateMutability": "view",
      "type": "function"
    },
    {
      "inputs": [],
      "name": "baseURI",
      "outputs": [
        {
          "internalType": "string",
          "name": "",
          "type": "string"
        }
      ],
      "stateMutability": "view",
      "type": "function"
    },
    {
      "inputs": [
        {
          "internalType": "uint256",
          "name": "tokenId",
          "type": "uint256"
        }
      ],
      "name": "getApproved",
      "outputs": [
        {
          "internalType": "address",
          "name": "",
          "type": "address"
        }
      ],
      "stateMutability": "view",
      "type": "function"
    },
    {
      "inputs": [
        {
          "internalType": "address",
          "name": "owner",
          "type": "address"
        },
        {
          "internalType": "address",
          "name": "operator",
          "type": "address"
        }
      ],
      "name": "isApprovedForAll",
      "outputs": [
        {
          "internalType": "bool",
          "name": "",
          "type": "bool"
        }
      ],
      "stateMutability": "view",
      "type": "function"
    },
    {
      "inputs": [],
      "name": "maxSupply",
      "outputs": [
        {
          "internalType": "uint256",
          "name": "",
          "type": "uint256"
        }
      ],
      "stateMutability": "view",
      "type": "function"
    },
    {
      "inputs": [],
      "name": "name",
      "outputs": [
        {
          "internalType": "string",
          "name": "",
          "type": "string"
        }
      ],
      "stateMutability": "view",
      "type": "function"
    },
    {
      "inputs": [],
      "name": "notRevealedUri",
      "outputs": [
        {
          "internalType": "string",
          "name": "",
          "type": "string"
        }
      ],
      "stateMutability": "view",
      "type": "function"
    },
    {
      "inputs": [],
      "name": "owner",
      "outputs": [
        {
          "internalType": "address",
          "name": "",
          "type": "address"
        }
      ],
      "stateMutability": "view",
      "type": "function"
    },
    {
      "inputs": [
        {
          "internalType": "uint256",
          "name": "tokenId",
          "type": "uint256"
        }
      ],
      "name": "ownerOf",
      "outputs": [
        {
          "internalType": "address",
          "name": "",
          "type": "address"
        }
      ],
      "stateMutability": "view",
      "type": "function"
    },
    {
      "inputs": [],
      "name": "paused",
      "outputs": [
        {
          "internalType": "bool",
          "name": "",
          "type": "bool"
        }
      ],
      "stateMutability": "view",
      "type": "function"
    },
    {
      "inputs": [
        {
          "internalType": "uint256",
          "name": "index",
          "type": "uint256"
        }
      ],
      "name": "payee",
      "outputs": [
        {
          "internalType": "address",
          "name": "",
          "type": "address"
        }
      ],
      "stateMutability": "view",
      "type": "function"
    },
    {
      "inputs": [],
      "name": "presaleM",
      "outputs": [
        {
          "internalType": "bool",
          "name": "",
          "type": "bool"
        }
      ],
      "stateMutability": "view",
      "type": "function"
    },
    {
      "inputs": [
        {
          "internalType": "address",
          "name": "account",
          "type": "address"
        },
        {
          "internalType": "uint256",
          "name": "_amount",
          "type": "uint256"
        },
        {
          "internalType": "bytes32[]",
          "name": "_proof",
          "type": "bytes32[]"
        }
      ],
      "name": "presaleMint",
      "outputs": [],
      "stateMutability": "payable",
      "type": "function"
    },
    {
      "inputs": [],
      "name": "publicM",
      "outputs": [
        {
          "internalType": "bool",
          "name": "",
          "type": "bool"
        }
      ],
      "stateMutability": "view",
      "type": "function"
    },
    {
      "inputs": [
        {
          "internalType": "uint256",
          "name": "_amount",
          "type": "uint256"
        }
      ],
      "name": "publicSaleMint",
      "outputs": [],
      "stateMutability": "payable",
      "type": "function"
    },
    {
      "inputs": [
        {
          "internalType": "address payable",
          "name": "account",
          "type": "address"
        }
      ],
      "name": "release",
      "outputs": [],
      "stateMutability": "nonpayable",
      "type": "function"
    },
    {
      "inputs": [
        {
          "internalType": "contract IERC20",
          "name": "token",
          "type": "address"
        },
        {
          "internalType": "address",
          "name": "account",
          "type": "address"
        }
      ],
      "name": "release",
      "outputs": [],
      "stateMutability": "nonpayable",
      "type": "function"
    },
    {
      "inputs": [
        {
          "internalType": "contract IERC20",
          "name": "token",
          "type": "address"
        },
        {
          "internalType": "address",
          "name": "account",
          "type": "address"
        }
      ],
      "name": "released",
      "outputs": [
        {
          "internalType": "uint256",
          "name": "",
          "type": "uint256"
        }
      ],
      "stateMutability": "view",
      "type": "function"
    },
    {
      "inputs": [
        {
          "internalType": "address",
          "name": "account",
          "type": "address"
        }
      ],
      "name": "released",
      "outputs": [
        {
          "internalType": "uint256",
          "name": "",
          "type": "uint256"
        }
      ],
      "stateMutability": "view",
      "type": "function"
    },
    {
      "inputs": [],
      "name": "renounceOwnership",
      "outputs": [],
      "stateMutability": "nonpayable",
      "type": "function"
    },
    {
      "inputs": [],
      "name": "reveal",
      "outputs": [],
      "stateMutability": "nonpayable",
      "type": "function"
    },
    {
      "inputs": [],
      "name": "revealed",
      "outputs": [
        {
          "internalType": "bool",
          "name": "",
          "type": "bool"
        }
      ],
      "stateMutability": "view",
      "type": "function"
    },
    {
      "inputs": [],
      "name": "root",
      "outputs": [
        {
          "internalType": "bytes32",
          "name": "",
          "type": "bytes32"
        }
      ],
      "stateMutability": "view",
      "type": "function"
    },
    {
      "inputs": [
        {
          "internalType": "address",
          "name": "from",
          "type": "address"
        },
        {
          "internalType": "address",
          "name": "to",
          "type": "address"
        },
        {
          "internalType": "uint256",
          "name": "tokenId",
          "type": "uint256"
        }
      ],
      "name": "safeTransferFrom",
      "outputs": [],
      "stateMutability": "nonpayable",
      "type": "function"
    },
    {
      "inputs": [
        {
          "internalType": "address",
          "name": "from",
          "type": "address"
        },
        {
          "internalType": "address",
          "name": "to",
          "type": "address"
        },
        {
          "internalType": "uint256",
          "name": "tokenId",
          "type": "uint256"
        },
        {
          "internalType": "bytes",
          "name": "_data",
          "type": "bytes"
        }
      ],
      "name": "safeTransferFrom",
      "outputs": [],
      "stateMutability": "nonpayable",
      "type": "function"
    },
    {
      "inputs": [
        {
          "internalType": "address",
          "name": "operator",
          "type": "address"
        },
        {
          "internalType": "bool",
          "name": "approved",
          "type": "bool"
        }
      ],
      "name": "setApprovalForAll",
      "outputs": [],
      "stateMutability": "nonpayable",
      "type": "function"
    },
    {
      "inputs": [
        {
          "internalType": "string",
          "name": "_newBaseExtension",
          "type": "string"
        }
      ],
      "name": "setBaseExtension",
      "outputs": [],
      "stateMutability": "nonpayable",
      "type": "function"
    },
    {
      "inputs": [
        {
          "internalType": "string",
          "name": "_tokenBaseURI",
          "type": "string"
        }
      ],
      "name": "setBaseURI",
      "outputs": [],
      "stateMutability": "nonpayable",
      "type": "function"
    },
    {
      "inputs": [
        {
          "internalType": "bytes32",
          "name": "merkleroot",
          "type": "bytes32"
        }
      ],
      "name": "setMerkleRoot",
      "outputs": [],
      "stateMutability": "nonpayable",
      "type": "function"
    },
    {
      "inputs": [
        {
          "internalType": "string",
          "name": "_notRevealedURI",
          "type": "string"
        }
      ],
      "name": "setNotRevealedURI",
      "outputs": [],
      "stateMutability": "nonpayable",
      "type": "function"
    },
    {
      "inputs": [
        {
          "internalType": "address",
          "name": "account",
          "type": "address"
        }
      ],
      "name": "shares",
      "outputs": [
        {
          "internalType": "uint256",
          "name": "",
          "type": "uint256"
        }
      ],
      "stateMutability": "view",
      "type": "function"
    },
    {
      "inputs": [
        {
          "internalType": "bytes4",
          "name": "interfaceId",
          "type": "bytes4"
        }
      ],
      "name": "supportsInterface",
      "outputs": [
        {
          "internalType": "bool",
          "name": "",
          "type": "bool"
        }
      ],
      "stateMutability": "view",
      "type": "function"
    },
    {
      "inputs": [],
      "name": "symbol",
      "outputs": [
        {
          "internalType": "string",
          "name": "",
          "type": "string"
        }
      ],
      "stateMutability": "view",
      "type": "function"
    },
    {
      "inputs": [],
      "name": "togglePause",
      "outputs": [],
      "stateMutability": "nonpayable",
      "type": "function"
    },
    {
      "inputs": [],
      "name": "togglePresale",
      "outputs": [],
      "stateMutability": "nonpayable",
      "type": "function"
    },
    {
      "inputs": [],
      "name": "togglePublicSale",
      "outputs": [],
      "stateMutability": "nonpayable",
      "type": "function"
    },
    {
      "inputs": [
        {
          "internalType": "uint256",
          "name": "tokenId",
          "type": "uint256"
        }
      ],
      "name": "tokenURI",
      "outputs": [
        {
          "internalType": "string",
          "name": "",
          "type": "string"
        }
      ],
      "stateMutability": "view",
      "type": "function"
    },
    {
      "inputs": [
        {
          "internalType": "contract IERC20",
          "name": "token",
          "type": "address"
        }
      ],
      "name": "totalReleased",
      "outputs": [
        {
          "internalType": "uint256",
          "name": "",
          "type": "uint256"
        }
      ],
      "stateMutability": "view",
      "type": "function"
    },
    {
      "inputs": [],
      "name": "totalReleased",
      "outputs": [
        {
          "internalType": "uint256",
          "name": "",
          "type": "uint256"
        }
      ],
      "stateMutability": "view",
      "type": "function"
    },
    {
      "inputs": [],
      "name": "totalShares",
      "outputs": [
        {
          "internalType": "uint256",
          "name": "",
          "type": "uint256"
        }
      ],
      "stateMutability": "view",
      "type": "function"
    },
    {
      "inputs": [],
      "name": "totalSupply",
      "outputs": [
        {
          "internalType": "uint256",
          "name": "",
          "type": "uint256"
        }
      ],
      "stateMutability": "view",
      "type": "function"
    },
    {
      "inputs": [
        {
          "internalType": "address",
          "name": "from",
          "type": "address"
        },
        {
          "internalType": "address",
          "name": "to",
          "type": "address"
        },
        {
          "internalType": "uint256",
          "name": "tokenId",
          "type": "uint256"
        }
      ],
      "name": "transferFrom",
      "outputs": [],
      "stateMutability": "nonpayable",
      "type": "function"
    },
    {
      "inputs": [
        {
          "internalType": "address",
          "name": "newOwner",
          "type": "address"
        }
      ],
      "name": "transferOwnership",
      "outputs": [],
      "stateMutability": "nonpayable",
      "type": "function"
    },
    {
      "stateMutability": "payable",
      "type": "receive"
    }
  ],
  "bytecode": "0x6064601155610100604052604160808181529062003a7960a03980516200002f916013916020909101906200069a565b5060408051808201909152600580825264173539b7b760d91b60209092019182526200005e916014916200069a565b506015805463ffffffff1916905560036016819055662386f26fc10000601855604080516060810182526028815260236020820152601991810191909152620000ab91601a919062000729565b5060408051606081018252730f46c30f68fa740f4341328580c3fa48e69424988152737cdb1a6f3339ec0916e58ccc58281e0a090cf3b26020820152730492989a1fd61a9fbf5cdffa3c34c26b0a020d42918101919091526200011390601b9060036200076c565b503480156200012157600080fd5b5060405162003aba38038062003aba83398101604081905262000144916200080e565b601b8054806020026020016040519081016040528092919081815260200182805480156200019c57602002820191906000526020600020905b81546001600160a01b031681526001909101906020018083116200017d575b5050505050601a805480602002602001604051908101604052809291908181526020018280548015620001ef57602002820191906000526020600020905b815481526020019060010190808311620001da575b50506040805180820182526008815267426f72656461706560c01b60208083019182528351808501909452600384526241504560e81b908401528151919550919350620002419250600091906200069a565b508051620002579060019060208401906200069a565b505050620002746200026e620003e160201b60201c565b620003e5565b60016007558051825114620002eb5760405162461bcd60e51b815260206004820152603260248201527f5061796d656e7453706c69747465723a2070617965657320616e6420736861726044820152710cae640d8cadccee8d040dad2e6dac2e8c6d60731b60648201526084015b60405180910390fd5b60008251116200033e5760405162461bcd60e51b815260206004820152601a60248201527f5061796d656e7453706c69747465723a206e6f207061796565730000000000006044820152606401620002e2565b60005b8251811015620003aa576200039583828151811062000364576200036462000909565b602002602001015183838151811062000381576200038162000909565b60200260200101516200043760201b60201c565b80620003a18162000935565b91505062000341565b505050600f829055601080546001600160a01b0319166001600160a01b038316179055620003d88362000625565b505050620009ab565b3390565b600680546001600160a01b038381166001600160a01b0319831681179093556040519116919082907f8be0079c531659141344cd1fd0a4f28419497f9722a3daafe3b4186f6b6457e090600090a35050565b6001600160a01b038216620004a45760405162461bcd60e51b815260206004820152602c60248201527f5061796d656e7453706c69747465723a206163636f756e74206973207468652060448201526b7a65726f206164647265737360a01b6064820152608401620002e2565b60008111620004f65760405162461bcd60e51b815260206004820152601d60248201527f5061796d656e7453706c69747465723a207368617265732061726520300000006044820152606401620002e2565b6001600160a01b0382166000908152600a602052604090205415620005725760405162461bcd60e51b815260206004820152602b60248201527f5061796d656e7453706c69747465723a206163636f756e7420616c726561647960448201526a206861732073686172657360a81b6064820152608401620002e2565b600c8054600181019091557fdf6966c971051c3d54ec59162606531493a51404a002842f56009d7e5cf4a8c70180546001600160a01b0319166001600160a01b0384169081179091556000908152600a60205260409020819055600854620005dc90829062000953565b600855604080516001600160a01b0384168152602081018390527f40c340f65e17194d14ddddb073d3c9f888e3cb52b5aae0c6c7706b4fbc905fac910160405180910390a15050565b6006546001600160a01b03163314620006815760405162461bcd60e51b815260206004820181905260248201527f4f776e61626c653a2063616c6c6572206973206e6f7420746865206f776e65726044820152606401620002e2565b8051620006969060129060208401906200069a565b5050565b828054620006a8906200096e565b90600052602060002090601f016020900481019282620006cc576000855562000717565b82601f10620006e757805160ff191683800117855562000717565b8280016001018555821562000717579182015b8281111562000717578251825591602001919060010190620006fa565b5062000725929150620007c4565b5090565b82805482825590600052602060002090810192821562000717579160200282015b8281111562000717578251829060ff169055916020019190600101906200074a565b82805482825590600052602060002090810192821562000717579160200282015b828111156200071757825182546001600160a01b0319166001600160a01b039091161782556020909201916001909101906200078d565b5b80821115620007255760008155600101620007c5565b634e487b7160e01b600052604160045260246000fd5b80516001600160a01b03811681146200080957600080fd5b919050565b6000806000606084860312156200082457600080fd5b83516001600160401b03808211156200083c57600080fd5b818601915086601f8301126200085157600080fd5b815181811115620008665762000866620007db565b604051601f8201601f19908116603f01168101908382118183101715620008915762000891620007db565b81604052828152602093508984848701011115620008ae57600080fd5b600091505b82821015620008d25784820184015181830185015290830190620008b3565b82821115620008e45760008484830101525b80975050505080860151935050506200090060408501620007f1565b90509250925092565b634e487b7160e01b600052603260045260246000fd5b634e487b7160e01b600052601160045260246000fd5b60006000198214156200094c576200094c6200091f565b5060010190565b600082198211156200096957620009696200091f565b500190565b600181811c908216806200098357607f821691505b60208210811415620009a557634e487b7160e01b600052602260045260246000fd5b50919050565b6130be80620009bb6000396000f3fe6080604052600436106102815760003560e01c80638cc4de191161014f578063c6682862116100c1578063e222c7f91161007a578063e222c7f9146107e9578063e33b7de3146107fe578063e985e9c514610813578063ebf0c71714610833578063f2c4ce1e14610849578063f2fde38b1461086957600080fd5b8063c668286214610712578063c87b56dd14610727578063ce7c2ac214610747578063d5abeb011461077d578063d79779b214610793578063da3ef23f146107c957600080fd5b8063a22cb46511610113578063a22cb46514610674578063a45063c014610694578063a475b5dd146106b5578063b3ab66b0146106ca578063b88d4fde146106dd578063c4ae3168146106fd57600080fd5b80638cc4de19146105cb5780638da5cb5b146105f8578063954dc3e31461061657806395d89b41146106295780639852595c1461063e57600080fd5b8063406072a9116101f35780636352211e116101ac5780636352211e146105215780636c0360eb1461054157806370a0823114610556578063715018a6146105765780637cb647591461058b5780638b83209b146105ab57600080fd5b8063406072a91461044257806342842e0e1461048857806348b75044146104a857806351830227146104c857806355f804b3146104e75780635c975abb1461050757600080fd5b80631798d58b116102455780631798d58b1461039557806318160ddd146103b557806319165587146103d857806323b872dd146103f857806334393743146104185780633a98ef391461042d57600080fd5b806301ffc9a7146102cf57806306fdde0314610304578063081812fc14610326578063081c8c441461035e578063095ea7b31461037357600080fd5b366102ca577f6ef95f06320e7a25a04a175ca677b7052bdd97131872c2192525a629f51be77033604080516001600160a01b0390921682523460208301520160405180910390a1005b600080fd5b3480156102db57600080fd5b506102ef6102ea366004612835565b610889565b60405190151581526020015b60405180910390f35b34801561031057600080fd5b506103196108db565b6040516102fb91906128aa565b34801561033257600080fd5b506103466103413660046128bd565b61096d565b6040516001600160a01b0390911681526020016102fb565b34801561036a57600080fd5b50610319610a07565b34801561037f57600080fd5b5061039361038e3660046128eb565b610a95565b005b3480156103a157600080fd5b506015546102ef9062010000900460ff1681565b3480156103c157600080fd5b506103ca610bab565b6040519081526020016102fb565b3480156103e457600080fd5b506103936103f3366004612917565b610bbb565b34801561040457600080fd5b50610393610413366004612934565b610ce9565b34801561042457600080fd5b50610393610d1a565b34801561043957600080fd5b506008546103ca565b34801561044e57600080fd5b506103ca61045d366004612975565b6001600160a01b039182166000908152600e6020908152604080832093909416825291909152205490565b34801561049457600080fd5b506103936104a3366004612934565b610d63565b3480156104b457600080fd5b506103936104c3366004612975565b610d7e565b3480156104d457600080fd5b506015546102ef90610100900460ff1681565b3480156104f357600080fd5b50610393610502366004612a3a565b610f66565b34801561051357600080fd5b506015546102ef9060ff1681565b34801561052d57600080fd5b5061034661053c3660046128bd565b610fa7565b34801561054d57600080fd5b5061031961101e565b34801561056257600080fd5b506103ca610571366004612917565b61102b565b34801561058257600080fd5b506103936110b2565b34801561059757600080fd5b506103936105a63660046128bd565b6110e8565b3480156105b757600080fd5b506103466105c63660046128bd565b611117565b3480156105d757600080fd5b506103ca6105e6366004612917565b60176020526000908152604090205481565b34801561060457600080fd5b506006546001600160a01b0316610346565b610393610624366004612a83565b611147565b34801561063557600080fd5b50610319611449565b34801561064a57600080fd5b506103ca610659366004612917565b6001600160a01b03166000908152600b602052604090205490565b34801561068057600080fd5b5061039361068f366004612b1d565b611458565b3480156106a057600080fd5b506015546102ef906301000000900460ff1681565b3480156106c157600080fd5b50610393611463565b6103936106d83660046128bd565b61149e565b3480156106e957600080fd5b506103936106f8366004612b4b565b611674565b34801561070957600080fd5b506103936116ac565b34801561071e57600080fd5b506103196116ea565b34801561073357600080fd5b506103196107423660046128bd565b6116f7565b34801561075357600080fd5b506103ca610762366004612917565b6001600160a01b03166000908152600a602052604090205490565b34801561078957600080fd5b506103ca60115481565b34801561079f57600080fd5b506103ca6107ae366004612917565b6001600160a01b03166000908152600d602052604090205490565b3480156107d557600080fd5b506103936107e4366004612a3a565b611876565b3480156107f557600080fd5b506103936118b3565b34801561080a57600080fd5b506009546103ca565b34801561081f57600080fd5b506102ef61082e366004612975565b6118fe565b34801561083f57600080fd5b506103ca600f5481565b34801561085557600080fd5b50610393610864366004612a3a565b6119ce565b34801561087557600080fd5b50610393610884366004612917565b611a0b565b60006001600160e01b031982166380ac58cd60e01b14806108ba57506001600160e01b03198216635b5e139f60e01b145b806108d557506301ffc9a760e01b6001600160e01b03198316145b92915050565b6060600080546108ea90612bcb565b80601f016020809104026020016040519081016040528092919081815260200182805461091690612bcb565b80156109635780601f1061093857610100808354040283529160200191610963565b820191906000526020600020905b81548152906001019060200180831161094657829003601f168201915b5050505050905090565b6000818152600260205260408120546001600160a01b03166109eb5760405162461bcd60e51b815260206004820152602c60248201527f4552433732313a20617070726f76656420717565727920666f72206e6f6e657860448201526b34b9ba32b73a103a37b5b2b760a11b60648201526084015b60405180910390fd5b506000908152600460205260409020546001600160a01b031690565b60138054610a1490612bcb565b80601f0160208091040260200160405190810160405280929190818152602001828054610a4090612bcb565b8015610a8d5780601f10610a6257610100808354040283529160200191610a8d565b820191906000526020600020905b815481529060010190602001808311610a7057829003601f168201915b505050505081565b6000610aa082610fa7565b9050806001600160a01b0316836001600160a01b03161415610b0e5760405162461bcd60e51b815260206004820152602160248201527f4552433732313a20617070726f76616c20746f2063757272656e74206f776e656044820152603960f91b60648201526084016109e2565b336001600160a01b0382161480610b2a5750610b2a81336118fe565b610b9c5760405162461bcd60e51b815260206004820152603860248201527f4552433732313a20617070726f76652063616c6c6572206973206e6f74206f7760448201527f6e6572206e6f7220617070726f76656420666f7220616c6c000000000000000060648201526084016109e2565b610ba68383611aa6565b505050565b6000610bb660195490565b905090565b6001600160a01b0381166000908152600a6020526040902054610bf05760405162461bcd60e51b81526004016109e290612c06565b6000610bfb60095490565b610c059047612c62565b90506000610c328383610c2d866001600160a01b03166000908152600b602052604090205490565b611b14565b905080610c515760405162461bcd60e51b81526004016109e290612c7a565b6001600160a01b0383166000908152600b602052604081208054839290610c79908490612c62565b925050819055508060096000828254610c929190612c62565b90915550610ca290508382611b52565b604080516001600160a01b0385168152602081018390527fdf20fd1e76bc69d672e4814fafb2c449bba3a5369d8359adf9e05e6fde87b056910160405180910390a1505050565b610cf33382611c6b565b610d0f5760405162461bcd60e51b81526004016109e290612cc5565b610ba6838383611d41565b6006546001600160a01b03163314610d445760405162461bcd60e51b81526004016109e290612d16565b6015805462ff0000198116620100009182900460ff1615909102179055565b610ba683838360405180602001604052806000815250611674565b6001600160a01b0381166000908152600a6020526040902054610db35760405162461bcd60e51b81526004016109e290612c06565b6001600160a01b0382166000908152600d60205260408120546040516370a0823160e01b81523060048201526001600160a01b038516906370a082319060240160206040518083038186803b158015610e0b57600080fd5b505afa158015610e1f573d6000803e3d6000fd5b505050506040513d601f19601f82011682018060405250810190610e439190612d4b565b610e4d9190612c62565b90506000610e868383610c2d87876001600160a01b039182166000908152600e6020908152604080832093909416825291909152205490565b905080610ea55760405162461bcd60e51b81526004016109e290612c7a565b6001600160a01b038085166000908152600e6020908152604080832093871683529290529081208054839290610edc908490612c62565b90915550506001600160a01b0384166000908152600d602052604081208054839290610f09908490612c62565b90915550610f1a9050848483611edd565b604080516001600160a01b038581168252602082018490528616917f3be5b7a71e84ed12875d241991c70855ac5817d847039e17a9d895c1ceb0f18a910160405180910390a250505050565b6006546001600160a01b03163314610f905760405162461bcd60e51b81526004016109e290612d16565b8051610fa3906012906020840190612786565b5050565b6000818152600260205260408120546001600160a01b0316806108d55760405162461bcd60e51b815260206004820152602960248201527f4552433732313a206f776e657220717565727920666f72206e6f6e657869737460448201526832b73a103a37b5b2b760b91b60648201526084016109e2565b60128054610a1490612bcb565b60006001600160a01b0382166110965760405162461bcd60e51b815260206004820152602a60248201527f4552433732313a2062616c616e636520717565727920666f7220746865207a65604482015269726f206164647265737360b01b60648201526084016109e2565b506001600160a01b031660009081526003602052604090205490565b6006546001600160a01b031633146110dc5760405162461bcd60e51b81526004016109e290612d16565b6110e66000611f2f565b565b6006546001600160a01b031633146111125760405162461bcd60e51b81526004016109e290612d16565b600f55565b6000600c828154811061112c5761112c612d64565b6000918252602090912001546001600160a01b031692915050565b81816111be82828080602002602001604051908101604052809392919081815260200183836020028082843760009201919091525050600f546040516bffffffffffffffffffffffff193360601b166020820152909250603401905060405160208183030381529060405280519060200120611f81565b15156001146111df5760405162461bcd60e51b81526004016109e290612d7a565b3332146111fe5760405162461bcd60e51b81526004016109e290612d7a565b336001600160a01b038716146112565760405162461bcd60e51b815260206004820152601860248201527f43727970746f50756e6b733a204e6f7420616c6c6f776564000000000000000060448201526064016109e2565b60155462010000900460ff166112ae5760405162461bcd60e51b815260206004820152601b60248201527f43727970746f50756e6b733a2050726573616c65206973204f4646000000000060448201526064016109e2565b60155460ff16156113015760405162461bcd60e51b815260206004820152601f60248201527f43727970746f50756e6b733a20436f6e7472616374206973207061757365640060448201526064016109e2565b6016548511156113235760405162461bcd60e51b81526004016109e290612da6565b60165433600090815260176020526040902054611341908790612c62565b111561135f5760405162461bcd60e51b81526004016109e290612da6565b600061136a60195490565b60115490915061137a8783612c62565b11156113c85760405162461bcd60e51b815260206004820181905260248201527f43727970746f50756e6b733a206d617820737570706c7920657863656564656460448201526064016109e2565b34866018546113d79190612df0565b11156113f55760405162461bcd60e51b81526004016109e290612e0f565b3360009081526017602052604081208054889290611414908490612c62565b90915550600090505b8681101561143f5761142d611f97565b8061143781612e52565b91505061141d565b5050505050505050565b6060600180546108ea90612bcb565b610fa333838361201c565b6006546001600160a01b0316331461148d5760405162461bcd60e51b81526004016109e290612d16565b6015805461ff001916610100179055565b3332146114bd5760405162461bcd60e51b81526004016109e290612d7a565b6015546301000000900460ff166115165760405162461bcd60e51b815260206004820152601e60248201527f43727970746f50756e6b733a205075626c696353616c65206973204f4646000060448201526064016109e2565b60155460ff16156115695760405162461bcd60e51b815260206004820152601f60248201527f43727970746f50756e6b733a20436f6e7472616374206973207061757365640060448201526064016109e2565b600081116115b95760405162461bcd60e51b815260206004820152601860248201527f43727970746f50756e6b733a207a65726f20616d6f756e74000000000000000060448201526064016109e2565b60006115c460195490565b6011549091506115d48383612c62565b11156116225760405162461bcd60e51b815260206004820181905260248201527f43727970746f50756e6b733a204d617820737570706c7920657863656564656460448201526064016109e2565b34826018546116319190612df0565b111561164f5760405162461bcd60e51b81526004016109e290612e0f565b60005b82811015610ba657611662611f97565b8061166c81612e52565b915050611652565b61167e3383611c6b565b61169a5760405162461bcd60e51b81526004016109e290612cc5565b6116a6848484846120eb565b50505050565b6006546001600160a01b031633146116d65760405162461bcd60e51b81526004016109e290612d16565b6015805460ff19811660ff90911615179055565b60148054610a1490612bcb565b6000818152600260205260409020546060906001600160a01b03166117765760405162461bcd60e51b815260206004820152602f60248201527f4552433732314d657461646174613a2055524920717565727920666f72206e6f60448201526e3732bc34b9ba32b73a103a37b5b2b760891b60648201526084016109e2565b601554610100900460ff16611817576013805461179290612bcb565b80601f01602080910402602001604051908101604052809291908181526020018280546117be90612bcb565b801561180b5780601f106117e05761010080835404028352916020019161180b565b820191906000526020600020905b8154815290600101906020018083116117ee57829003601f168201915b50505050509050919050565b600061182161211e565b90506000815111611841576040518060200160405280600081525061186f565b8061184b8461212d565b601460405160200161185f93929190612e6d565b6040516020818303038152906040525b9392505050565b6006546001600160a01b031633146118a05760405162461bcd60e51b81526004016109e290612d16565b8051610fa3906014906020840190612786565b6006546001600160a01b031633146118dd5760405162461bcd60e51b81526004016109e290612d16565b6015805463ff00000019811663010000009182900460ff1615909102179055565b60105460405163c455279160e01b81526001600160a01b03848116600483015260009281169190841690829063c45527919060240160206040518083038186803b15801561194b57600080fd5b505afa15801561195f573d6000803e3d6000fd5b505050506040513d601f19601f820116820180604052508101906119839190612f31565b6001600160a01b0316141561199c5760019150506108d5565b6001600160a01b0380851660009081526005602090815260408083209387168352929052205460ff165b949350505050565b6006546001600160a01b031633146119f85760405162461bcd60e51b81526004016109e290612d16565b8051610fa3906013906020840190612786565b6006546001600160a01b03163314611a355760405162461bcd60e51b81526004016109e290612d16565b6001600160a01b038116611a9a5760405162461bcd60e51b815260206004820152602660248201527f4f776e61626c653a206e6577206f776e657220697320746865207a65726f206160448201526564647265737360d01b60648201526084016109e2565b611aa381611f2f565b50565b600081815260046020526040902080546001600160a01b0319166001600160a01b0384169081179091558190611adb82610fa7565b6001600160a01b03167f8c5be1e5ebec7d5bd14f71427d1e84f3dd0314c0f7b2291e5b200ac8c7c3b92560405160405180910390a45050565b6008546001600160a01b0384166000908152600a602052604081205490918391611b3e9086612df0565b611b489190612f64565b6119c69190612f78565b80471015611ba25760405162461bcd60e51b815260206004820152601d60248201527f416464726573733a20696e73756666696369656e742062616c616e636500000060448201526064016109e2565b6000826001600160a01b03168260405160006040518083038185875af1925050503d8060008114611bef576040519150601f19603f3d011682016040523d82523d6000602084013e611bf4565b606091505b5050905080610ba65760405162461bcd60e51b815260206004820152603a60248201527f416464726573733a20756e61626c6520746f2073656e642076616c75652c207260448201527f6563697069656e74206d6179206861766520726576657274656400000000000060648201526084016109e2565b6000818152600260205260408120546001600160a01b0316611ce45760405162461bcd60e51b815260206004820152602c60248201527f4552433732313a206f70657261746f7220717565727920666f72206e6f6e657860448201526b34b9ba32b73a103a37b5b2b760a11b60648201526084016109e2565b6000611cef83610fa7565b9050806001600160a01b0316846001600160a01b03161480611d165750611d1681856118fe565b806119c65750836001600160a01b0316611d2f8461096d565b6001600160a01b031614949350505050565b826001600160a01b0316611d5482610fa7565b6001600160a01b031614611db85760405162461bcd60e51b815260206004820152602560248201527f4552433732313a207472616e736665722066726f6d20696e636f72726563742060448201526437bbb732b960d91b60648201526084016109e2565b6001600160a01b038216611e1a5760405162461bcd60e51b8152602060048201526024808201527f4552433732313a207472616e7366657220746f20746865207a65726f206164646044820152637265737360e01b60648201526084016109e2565b611e25600082611aa6565b6001600160a01b0383166000908152600360205260408120805460019290611e4e908490612f78565b90915550506001600160a01b0382166000908152600360205260408120805460019290611e7c908490612c62565b909155505060008181526002602052604080822080546001600160a01b0319166001600160a01b0386811691821790925591518493918716917fddf252ad1be2c89b69c2b068fc378daa952ba7f163c4a11628f55a4df523b3ef91a4505050565b604080516001600160a01b038416602482015260448082018490528251808303909101815260649091019091526020810180516001600160e01b031663a9059cbb60e01b179052610ba690849061222b565b600680546001600160a01b038381166001600160a01b0319831681179093556040519116919082907f8be0079c531659141344cd1fd0a4f28419497f9722a3daafe3b4186f6b6457e090600090a35050565b600082611f8e85846122fd565b14949350505050565b60026007541415611fea5760405162461bcd60e51b815260206004820152601f60248201527f5265656e7472616e637947756172643a207265656e7472616e742063616c6c0060448201526064016109e2565b6002600755611ffd601980546001019055565b600061200860195490565b90506120143382612371565b506001600755565b816001600160a01b0316836001600160a01b0316141561207e5760405162461bcd60e51b815260206004820152601960248201527f4552433732313a20617070726f766520746f2063616c6c65720000000000000060448201526064016109e2565b6001600160a01b03838116600081815260056020908152604080832094871680845294825291829020805460ff191686151590811790915591519182527f17307eab39ab6107e8899845ad3d59bd9653f200f220920489ca2b5937696c31910160405180910390a3505050565b6120f6848484611d41565b6121028484848461238b565b6116a65760405162461bcd60e51b81526004016109e290612f8f565b6060601280546108ea90612bcb565b6060816121515750506040805180820190915260018152600360fc1b602082015290565b8160005b811561217b578061216581612e52565b91506121749050600a83612f64565b9150612155565b60008167ffffffffffffffff811115612196576121966129ae565b6040519080825280601f01601f1916602001820160405280156121c0576020820181803683370190505b5090505b84156119c6576121d5600183612f78565b91506121e2600a86612fe1565b6121ed906030612c62565b60f81b81838151811061220257612202612d64565b60200101906001600160f81b031916908160001a905350612224600a86612f64565b94506121c4565b6000612280826040518060400160405280602081526020017f5361666545524332303a206c6f772d6c6576656c2063616c6c206661696c6564815250856001600160a01b03166124989092919063ffffffff16565b805190915015610ba6578080602001905181019061229e9190612ff5565b610ba65760405162461bcd60e51b815260206004820152602a60248201527f5361666545524332303a204552433230206f7065726174696f6e20646964206e6044820152691bdd081cdd58d8d9595960b21b60648201526084016109e2565b600081815b845181101561236957600085828151811061231f5761231f612d64565b602002602001015190508083116123455760008381526020829052604090209250612356565b600081815260208490526040902092505b508061236181612e52565b915050612302565b509392505050565b610fa38282604051806020016040528060008152506124a7565b60006001600160a01b0384163b1561248d57604051630a85bd0160e11b81526001600160a01b0385169063150b7a02906123cf903390899088908890600401613012565b602060405180830381600087803b1580156123e957600080fd5b505af1925050508015612419575060408051601f3d908101601f191682019092526124169181019061304f565b60015b612473573d808015612447576040519150601f19603f3d011682016040523d82523d6000602084013e61244c565b606091505b50805161246b5760405162461bcd60e51b81526004016109e290612f8f565b805181602001fd5b6001600160e01b031916630a85bd0160e11b1490506119c6565b506001949350505050565b60606119c684846000856124da565b6124b1838361260b565b6124be600084848461238b565b610ba65760405162461bcd60e51b81526004016109e290612f8f565b60608247101561253b5760405162461bcd60e51b815260206004820152602660248201527f416464726573733a20696e73756666696369656e742062616c616e636520666f6044820152651c8818d85b1b60d21b60648201526084016109e2565b6001600160a01b0385163b6125925760405162461bcd60e51b815260206004820152601d60248201527f416464726573733a2063616c6c20746f206e6f6e2d636f6e747261637400000060448201526064016109e2565b600080866001600160a01b031685876040516125ae919061306c565b60006040518083038185875af1925050503d80600081146125eb576040519150601f19603f3d011682016040523d82523d6000602084013e6125f0565b606091505b509150915061260082828661274d565b979650505050505050565b6001600160a01b0382166126615760405162461bcd60e51b815260206004820181905260248201527f4552433732313a206d696e7420746f20746865207a65726f206164647265737360448201526064016109e2565b6000818152600260205260409020546001600160a01b0316156126c65760405162461bcd60e51b815260206004820152601c60248201527f4552433732313a20746f6b656e20616c7265616479206d696e7465640000000060448201526064016109e2565b6001600160a01b03821660009081526003602052604081208054600192906126ef908490612c62565b909155505060008181526002602052604080822080546001600160a01b0319166001600160a01b03861690811790915590518392907fddf252ad1be2c89b69c2b068fc378daa952ba7f163c4a11628f55a4df523b3ef908290a45050565b6060831561275c57508161186f565b82511561276c5782518084602001fd5b8160405162461bcd60e51b81526004016109e291906128aa565b82805461279290612bcb565b90600052602060002090601f0160209004810192826127b457600085556127fa565b82601f106127cd57805160ff19168380011785556127fa565b828001600101855582156127fa579182015b828111156127fa5782518255916020019190600101906127df565b5061280692915061280a565b5090565b5b80821115612806576000815560010161280b565b6001600160e01b031981168114611aa357600080fd5b60006020828403121561284757600080fd5b813561186f8161281f565b60005b8381101561286d578181015183820152602001612855565b838111156116a65750506000910152565b60008151808452612896816020860160208601612852565b601f01601f19169290920160200192915050565b60208152600061186f602083018461287e565b6000602082840312156128cf57600080fd5b5035919050565b6001600160a01b0381168114611aa357600080fd5b600080604083850312156128fe57600080fd5b8235612909816128d6565b946020939093013593505050565b60006020828403121561292957600080fd5b813561186f816128d6565b60008060006060848603121561294957600080fd5b8335612954816128d6565b92506020840135612964816128d6565b929592945050506040919091013590565b6000806040838503121561298857600080fd5b8235612993816128d6565b915060208301356129a3816128d6565b809150509250929050565b634e487b7160e01b600052604160045260246000fd5b600067ffffffffffffffff808411156129df576129df6129ae565b604051601f8501601f19908116603f01168101908282118183101715612a0757612a076129ae565b81604052809350858152868686011115612a2057600080fd5b858560208301376000602087830101525050509392505050565b600060208284031215612a4c57600080fd5b813567ffffffffffffffff811115612a6357600080fd5b8201601f81018413612a7457600080fd5b6119c6848235602084016129c4565b60008060008060608587031215612a9957600080fd5b8435612aa4816128d6565b935060208501359250604085013567ffffffffffffffff80821115612ac857600080fd5b818701915087601f830112612adc57600080fd5b813581811115612aeb57600080fd5b8860208260051b8501011115612b0057600080fd5b95989497505060200194505050565b8015158114611aa357600080fd5b60008060408385031215612b3057600080fd5b8235612b3b816128d6565b915060208301356129a381612b0f565b60008060008060808587031215612b6157600080fd5b8435612b6c816128d6565b93506020850135612b7c816128d6565b925060408501359150606085013567ffffffffffffffff811115612b9f57600080fd5b8501601f81018713612bb057600080fd5b612bbf878235602084016129c4565b91505092959194509250565b600181811c90821680612bdf57607f821691505b60208210811415612c0057634e487b7160e01b600052602260045260246000fd5b50919050565b60208082526026908201527f5061796d656e7453706c69747465723a206163636f756e7420686173206e6f2060408201526573686172657360d01b606082015260800190565b634e487b7160e01b600052601160045260246000fd5b60008219821115612c7557612c75612c4c565b500190565b6020808252602b908201527f5061796d656e7453706c69747465723a206163636f756e74206973206e6f742060408201526a191d59481c185e5b595b9d60aa1b606082015260800190565b60208082526031908201527f4552433732313a207472616e736665722063616c6c6572206973206e6f74206f6040820152701ddb995c881b9bdc88185c1c1c9bdd9959607a1b606082015260800190565b6020808252818101527f4f776e61626c653a2063616c6c6572206973206e6f7420746865206f776e6572604082015260600190565b600060208284031215612d5d57600080fd5b5051919050565b634e487b7160e01b600052603260045260246000fd5b6020808252601290820152712737ba1030b63637bbb2b21037b934b3b4b760711b604082015260600190565b6020808252602a908201527f43727970746f50756e6b733a20596f752063616e2774206d696e7420736f206d60408201526975636820746f6b656e7360b01b606082015260800190565b6000816000190483118215151615612e0a57612e0a612c4c565b500290565b60208082526023908201527f43727970746f50756e6b733a204e6f7420656e6f756768206574686572732073604082015262195b9d60ea1b606082015260800190565b6000600019821415612e6657612e66612c4c565b5060010190565b600084516020612e808285838a01612852565b855191840191612e938184848a01612852565b8554920191600090600181811c9080831680612eb057607f831692505b858310811415612ece57634e487b7160e01b85526022600452602485fd5b808015612ee25760018114612ef357612f20565b60ff19851688528388019550612f20565b60008b81526020902060005b85811015612f185781548a820152908401908801612eff565b505083880195505b50939b9a5050505050505050505050565b600060208284031215612f4357600080fd5b815161186f816128d6565b634e487b7160e01b600052601260045260246000fd5b600082612f7357612f73612f4e565b500490565b600082821015612f8a57612f8a612c4c565b500390565b60208082526032908201527f4552433732313a207472616e7366657220746f206e6f6e20455243373231526560408201527131b2b4bb32b91034b6b83632b6b2b73a32b960711b606082015260800190565b600082612ff057612ff0612f4e565b500690565b60006020828403121561300757600080fd5b815161186f81612b0f565b6001600160a01b03858116825284166020820152604081018390526080606082018190526000906130459083018461287e565b9695505050505050565b60006020828403121561306157600080fd5b815161186f8161281f565b6000825161307e818460208701612852565b919091019291505056fea26469706673582212203dbb5f24a0ee4dbdbb8cd9e5aee3dcf95dcadab5506d32bcf44524c6db5364f064736f6c63430008090033697066733a2f2f516d63366d5652654873424a7a564d4c705a73746d505875624d6973754a643651644875704b4b63476967534d532f68696464656e2e6a736f6e",
  "linkReferences": {},
  "deployedLinkReferences": {}
}